:020000040800F2
:100000008C040020050A0008A9090008B5090008A9
:10001000BD090008C5090008CD090008000000005E
:10002000000000000000000000000000D5090008EA
:10003000E109000800000000ED090008F9090008C6
:10004000590A0008590A0008590A0008590A000804
:10005000590A0008590A0008590A0008590A0008F4
:10006000590A0008590A0008590A0008590A0008E4
:10007000590A0008590A0008590A0008590A0008D4
:10008000590A0008590A0008590A0008590A0008C4
:10009000590A0008590A0008590A0008590A0008B4
:1000A000590A0008590A0008590A0008590A0008A4
:1000B000590A0008590A0008590A0008590A000894
:1000C000590A0008590A0008590A0008590A000884
:1000D000590A00081D030008590A0008590A0008B7
:1000E000590A0008590A0008590A0008590A000864
:1000F000590A0008590A0008590A0008590A000854
:10010000590A0008590A0008590A0008590A000843
:10011000590A0008590A0008590A0008590A000833
:10012000590A0008590A0008590A0008590A000823
:040130005FF808F17B
:1001340008B50548054B1B1A062B00D808BD044B0F
:10014400002BFBD09847F9E78C0000208F0000209B
:100154000000000008B50748074B1B1A9B1003EB6F
:10016400D373591000D108BD044A002AFBD090472C
:10017400F9E700BF8C0000208C0000200000000084
:1001840010B5064C237843B9FFF7D2FF044B13B1E3
:100194000448AFF300800123237010BD8C040020B9
:1001A40000000000602C000808B5074B1BB107488D
:1001B4000749AFF300800748036813B1064B03B146
:1001C4009847BDE80840C5E700000000602C00081F
:1001D400900400208C0000200000000080B582B054
:1001E40000AF1020012101F041FF0823BB80102340
:1001F400FB710323BB713B1D0B48194601F02EF91B
:1002040009484FF4807101F049FA1023BB803B1D6B
:100214000548194601F022F90348102101F03EFA7D
:100224000837BD4680BD00BF0010014080B483B0D4
:1002340000AF786018460C37BD465DF8047B704704
:1002440080B483B000AF7860396000BF084B1B886E
:100254009BB203F04003002BF8D0054B7A68D2B26E
:100264009A807B6818460C37BD465DF8047B70475E
:100274000038014080B588B000AF786044F20400D3
:10028400012101F0F3FE4FF40073BB830323BB771A
:100294001823FB7707F11C031D48194601F0DEF80B
:1002A4004FF48063BB830423FB7707F11C031848D6
:1002B400194601F0D3F825233B7203237B720323F1
:1002C400BB720123FB7207F10803184601F04CFBD3
:1002D4007B68FB6000233B8200237B820023BB827C
:1002E40000233B830C23FB8207F10C0309481946C6
:1002F40000F014FC074840F22551012200F044FDAF
:100304000448012100F020FD2037BD4680BD00BF18
:10031400000801400038014080B582B000AF264893
:1003240040F2255100F0A8FF0346002B40D022489C
:1003340000F03CFE0346FB71204B1B889BB21BB2B2
:10034400002B35DB1D4B1B8803F48043002B10D09E
:10035400FB790A2B03D0194B00221A8028E0174B93
:100364001B886FEA43436FEA53439AB2134B1A80D4
:100374001EE0FB790D2B07D1104B1B8843F48043FF
:100384009AB20E4B1A8013E00C4B1B88C3F30D0377
:100394000B4AF979D154094B1B8801339AB2074BA4
:1003A4001A80064B1B88C72B02D9044B00221A80E3
:1003B4000837BD4680BD00BF00380140A8040020B6
:1003C400B804002080B500AF154B154A126842F0FE
:1003D40001021A60124A124B5968124B0B405360C7
:1003E4000F4A0F4B1B6823F0847323F4803313608C
:1003F4000B4B0B4A126822F480221A60084B084AFD
:10040400526822F4FE025A60054B4FF41F029A60B0
:1004140000F078F8044B4FF000629A6080BD00BF92
:10042400001002400000FFF800ED00E080B485B049
:1004340000AF0023FB600023BB6000237B602C4BD8
:100444005B6803F00C03FB60FB68042B07D0082BEC
:1004540009D0002B34D1274B274A1A6034E0254BAE
:10046400254A1A6030E0224B5B6803F47013BB60CA
:100474001F4B5B6803F480337B60BB689B0C0233C7
:10048400BB607B68002B06D1BB681C4A02FB03F2ED
:10049400184B1A6013E0164B5B6803F40033002B0F
:1004A40006D0BB68154A02FB03F2124B1A6006E041
:1004B400BB68114A02FB03F20E4B1A6004E003E02E
:1004C4000C4B0D4A1A6000BF094B5B6803F0F00344
:1004D4001B090B4AD35CDBB2FB60064B1A68FB6852
:1004E400DA40044B1A601437BD465DF8047B70474C
:1004F400001002400000002000127A0000093D00B4
:100504000400002080B500AF00F002F880BD00BFF9
:1005140080B483B000AF00237B6000233B603A4B80
:10052400394A126842F480321A60374B1B6803F46C
:1005340000333B607B6801337B603B68002B03D155
:100544007B68B3F5A06FF0D12F4B1B6803F4003325
:10055400002B02D001233B6001E000233B603B6899
:10056400012B4BD1294B294A126842F010021A6020
:10057400264B264A126822F003021A60234B234AB0
:10058400126842F002021A601F4B1F4A52685A60F6
:100594001D4B1D4A52685A601B4B1B4A526842F459
:1005A40080625A60184B184A526822F47C125A60CE
:1005B400154B154A526842F4E8125A60124B124A1B
:1005C400126842F080721A6000BF0F4B1B6803F080
:1005D4000073002BF9D00C4B0B4A526822F0030233
:1005E4005A60094B084A526842F002025A6000BF3E
:1005F400054B5B6803F00C03082BF9D10C37BD469F
:100604005DF8047B704700BF0010024000200240E8
:1006140080B400AFFEE700BF80B400AF204B204A97
:10062400926942F001029A611E4B1E4A526842F0DE
:1006340000725A601C4B1C4A526842F020025A60F5
:10064400194B5B6803F02003002B00D124E0174B07
:10065400164AD26842F08072DA60154B00221A61A1
:10066400134B0222C3F8F020114B4FF48072C3F8ED
:100674000423104B104A1A604FF060430F4AC3F82A
:10068400B02F4FF060430E4AC3F8802E4FF0604302
:100694004FF0FF32C3F8002EBD465DF8047B70476F
:1006A4000010024000000140002004E0F0ED00E0F2
:1006B400000004E0001000E0011A010055CEACC5B2
:1006C4000D00010080B400AF0A4B0B4A1A62094BBB
:1006D40005225A62074B22229A62064B074A1A6382
:1006E400044B02225A63034B03229A63BD465DF80E
:1006F400047B7047001000E000080140F80500206A
:1007040080B483B000AF786039604FF06043D3F8B1
:10071400803E03F00103002B20D04FF06043D3F858
:10072400002E7B6822FA03F303F00103002B15D09B
:1007340010E000BF4FF060437A6853F82230002B7A
:10074400F8D04FF060423B68591C396019787B68D7
:1007540002F823103B681B78002BEAD10C37BD4606
:100764005DF8047B704700BF80B483B000AF78604D
:1007740039604FF06043D3F8803E03F00103002B4F
:1007840018D04FF06043D3F8002E7B6822FA03F3AD
:1007940003F00103002B0DD000BF4FF060437A68D3
:1007A40053F82230002BF8D04FF060437A68396850
:1007B40043F822100C37BD465DF8047B704700BF38
:1007C40080B487B000AF7860396001233B6138E0C2
:1007D40000233B6101237B612FE07B699B007A68E6
:1007E40013441A687B6903F18043013B9B007968D9
:1007F4000B441B689A421DDA7B699B007A68134498
:100804001B68FB607B699B007A681A447B6903F16F
:100814008043013B9B0079680B441B6813607B6930
:1008240003F18043013B9B007A681344FA681A6021
:1008340001233B617B6901337B617A693B689A429E
:10084400CBDB3B69002BC3D11C37BD465DF8047B71
:10085400704700BF80B483B000AF00237B6002E028
:100864007B6801337B607B68042BF9DD0C37BD4664
:100874005DF8047B704700BF80B582B000AF3F4B8A
:100884007B60FFF7C9FEFFF71DFFFFF7A7FC3C4B9A
:1008940000221A603B4B00221A603B4B00221A6074
:1008A4003A4B00221A603A4B64221A607B68002299
:1008B4001A60384B00221A60374B01221A60314B00
:1008C40001221A60304B01221A602E4B1A682E4BFB
:1008D4001B681A442D4B1A602C4B1B68642B02DDD9
:1008E4002A4B00221A607B6800221A6000202B49E0
:1008F400FFF706FFFFF7AEFF264B01221A60264BD7
:1009040000221A601F4B1B685A1C1E4B1A601E4B98
:100914001B689A1C1C4B1A601A4B1A681A4B1B68EA
:10092400D21A1B4B1A601A4B1B68002B02DA184BA5
:1009340064221A60134B1B68642B02DD114B0022E6
:100944001A60114B1B68642B02DD0F4B00221A60E6
:100954007B6800221A60124801F00CFDFFF77AFF51
:10096400074B1B685A1C064B1A60054B1B68102B5F
:1009740003D1034B00221A6098E797E7041000E0C4
:10098400F8050020F4050020E8050020EC0500200F
:10099400F00500208C01224290012242782C0008AC
:1009A400982C000880B400AFBD465DF8047B704706
:1009B40080B400AFFEE700BF80B400AFFEE700BF25
:1009C40080B400AFFEE700BF80B400AFFEE700BF15
:1009D40080B400AFBD465DF8047B704780B400AFBF
:1009E400BD465DF8047B704780B400AFBD465DF83A
:1009F400047B704780B400AFBD465DF8047B70474C
:100A040080B582B000AF104B7B60104B3B6007E0B9
:100A14003B681A1D3A607A68111D796012681A6081
:100A24003A680B4B9A42F3D30C480D494FF000023D
:100A34008842B8BF40F8042BFADBFFF7C3FCFFF78A
:100A44001BFF0837BD4680BD282D0008000000208C
:100A54008C00002080B400AFFEE700008C0400206E
:100A64000006002080B582B000AF78607A68264B1B
:100A74009A420AD14FF48040012101F033FB4FF434
:100A84008040002101F02EFB3AE07A681F4B9A4225
:100A94000AD14FF40030012101F042FB4FF4003041
:100AA400002101F03DFB2BE07A68194B9A420AD1F0
:100AB4004FF48020012101F033FB4FF4802000210A
:100AC40001F02EFB1CE07A68124B9A420AD14FF4D3
:100AD4000020012101F024FB4FF40020002101F04B
:100AE4001FFB0DE07A680C4B9A4209D14FF4801039
:100AF400012101F015FB4FF48010002101F010FBDF
:100B04000837BD4680BD00BF0038014000440040A6
:100B140000480040004C00400050004080B58CB0BC
:100B240000AF786039600023FB620023BB620023BE
:100B34007B6200233B620023FB617B68FB617B6873
:100B44001B8A9BB2FB62FA6A4CF6FF731340FB628A
:100B54003B68DB88FA6A1343FB62FB6A9AB27B68E0
:100B64001A827B689B899BB2FB62FA6A4EF6F31386
:100B74001340FB623B689A883B681B8913439AB213
:100B84003B685B8913439BB2FA6A1343FB62FB6ABB
:100B94009AB27B689A817B689B8A9BB2FB62FA6AF1
:100BA4004FF6FF431340FB623B689B89FA6A134389
:100BB400FB62FB6A9AB27B689A8207F108031846C3
:100BC40001F084F9FA69304B9A4202D17B69BB6225
:100BD40001E03B69BB627B689B899BB29BB21BB201
:100BE400002B0CDABA6A13469B0013449A001A4489
:100BF4003B681B685B00B2FBF3F37B620BE0BA6AF1
:100C040013469B0013449A001A443B681B689B00DC
:100C1400B2FBF3F37B627A6A1C4BA3FB02135B09FE
:100C24001B01FB62FB6A1B09642202FB03F37A6A61
:100C3400D31A3B627B689B899BB29BB21BB2002B8D
:100C44000DDA3B6ADB0003F13202104BA3FB021303
:100C54005B0903F00703FA6A1343FB620CE03B6A87
:100C64001B0103F13202094BA3FB02135B0903F0DE
:100C74000F03FA6A1343FB62FB6A9AB27B681A8118
:100C84003037BD4680BD00BF003801401F85EB51A1
:100C940080B483B000AF78607B684FF416521A605A
:100CA4007B6800229A807B680022DA807B680022BD
:100CB4001A817B680C225A817B6800229A810C3746
:100CC400BD465DF8047B704780B485B000AF7860A2
:100CD40039600023FB607B681B8A9BB2FB60FA6867
:100CE4004FF2FF031340FB603B681A883B685B8844
:100CF40013439AB23B689B8813439AB23B68DB88E0
:100D040013439BB2FA681343FB60FB689AB27B6897
:100D14001A821437BD465DF8047B704780B483B0F3
:100D240000AF78607B6800221A807B6800225A80BA
:100D34007B6800229A807B680022DA800C37BD46EB
:100D44005DF8047B704700BF80B483B000AF786067
:100D54000B46FB70FB78002B08D07B689B899BB209
:100D640043F400539AB27B689A8107E07B689B89BD
:100D74009BB223F400539AB27B689A810C37BD4628
:100D84005DF8047B704700BF80B487B000AF786023
:100D940013460A467A807B7000233B610023FB6084
:100DA4000023BB6000237B617B687B617B88DBB2B3
:100DB4005B09DBB23B617B8803F01F03FB60FB68CC
:100DC400012202FA03F3BB603B69012B03D17B6967
:100DD4000C337B6109E03B69022B03D17B6910333F
:100DE4007B6102E07B6914337B617B78002B06D046
:100DF4007B697A691168BA680A431A6006E07B69FC
:100E04007A691168BA68D2430A401A601C37BD4631
:100E14005DF8047B704700BF80B483B000AF786096
:100E240013460A467A807B707B78002B08D07B6857
:100E34009B8A9AB27B8813439AB27B689A8209E0B0
:100E44007B689B8A9AB27B88DB439BB213409AB23D
:100E54007B689A820C37BD465DF8047B704700BFFF
:100E640080B483B000AF78600B46FB707B681B8A4C
:100E74009BB223F00F039AB27B681A827B681B8AA9
:100E84009AB2FB789BB213439AB27B681A820C37EE
:100E9400BD465DF8047B704780B483B000AF7860D2
:100EA4000B467B807B689B899BB223F400639AB2D8
:100EB4007B689A817B689B899AB27B8813439AB238
:100EC4007B689A810C37BD465DF8047B704700BF90
:100ED40080B483B000AF78600B46FB70FB78002BC6
:100EE40008D07B689B899BB243F002039AB27B686B
:100EF4009A8107E07B689B899BB223F002039AB234
:100F04007B689A810C37BD465DF8047B704700BF4F
:100F140080B483B000AF78600B467B807B681B8A0B
:100F24009BB223F020039AB27B681A827B681B8AE7
:100F34009AB27B8813439AB27B681A820C37BD46F7
:100F44005DF8047B704700BF80B483B000AF786065
:100F54000B46FB70FB78002B08D07B681B8A9BB286
:100F640043F480439AB27B681A8207E07B681B8A49
:100F74009BB223F480439AB27B681A820C37BD4635
:100F84005DF8047B704700BF80B483B000AF786025
:100F94000B467B807B88C3F308039AB27B689A80F4
:100FA4000C37BD465DF8047B704700BF80B483B046
:100FB40000AF78607B689B889BB2C3F308039BB245
:100FC40018460C37BD465DF8047B704780B483B087
:100FD40000AF78607B689B899BB243F001039AB2AF
:100FE4007B689A810C37BD465DF8047B704700BF6F
:100FF40080B483B000AF78600B46FB707B681B8BBA
:101004009BB2DBB29AB27B681A837B681B8B9AB261
:10101400FB789BB21B029BB213439AB27B681A8380
:101024000C37BD465DF8047B704700BF80B483B0C5
:1010340000AF78600B46FB707B681B8B9BB223F080
:10104400FF039AB27B681A837B681B8B9AB2FB7886
:101054009BB213439AB27B681A830C37BD465DF882
:10106400047B704780B483B000AF78600B46FB709C
:10107400FB78002B08D07B689B8A9BB243F020034B
:101084009AB27B689A8207E07B689B8A9BB223F0C2
:1010940020039AB27B689A820C37BD465DF8047BC4
:1010A400704700BF80B483B000AF78600B46FB701C
:1010B400FB78002B08D07B689B8A9BB243F010031B
:1010C4009AB27B689A8207E07B689B8A9BB223F082
:1010D40010039AB27B689A820C37BD465DF8047B94
:1010E400704700BF80B483B000AF78600B46FB70DC
:1010F400FB78002B08D07B689B8A9BB243F00803E3
:101104009AB27B689A8207E07B689B8A9BB223F041
:1011140008039AB27B689A820C37BD465DF8047B5B
:10112400704700BF80B483B000AF78600B46FB709B
:10113400FB78002B0AD07B689B899BB26FEA434300
:101144006FEA53439AB27B689A8107E07B689B8974
:101154009BB2C3F30E039AB27B689A810C37BD46E7
:101164005DF8047B704700BF80B483B000AF786043
:101174000B46FB70FB78002B08D07B689B8A9BB2E4
:1011840043F400639AB27B689A8207E07B689B8A87
:101194009BB223F400639AB27B689A820C37BD46F3
:1011A4005DF8047B704700BF80B483B000AF786003
:1011B4000B467B807B689B8A9BB223F004039AB224
:1011C4007B689A827B689B8A9AB27B8813439AB223
:1011D4007B689A820C37BD465DF8047B704700BF7C
:1011E40080B483B000AF78600B46FB70FB78002BB3
:1011F40008D07B689B8A9BB243F002039AB27B6857
:101204009A8207E07B689B8A9BB223F002039AB21E
:101214007B689A820C37BD465DF8047B704700BF3B
:1012240080B485B000AF78600B467B800023FB73ED
:101234007B681B889AB27B8813409BB2002B02D038
:101244000123FB7301E00023FB73FB7B1846143777
:10125400BD465DF8047B704780B483B000AF78600E
:101264000B467B807B88DB439AB27B681A800C3701
:10127400BD465DF8047B704780B487B000AF7860EA
:101284000B467B800023FB6000237B610023BB6053
:101294000023FB747B88DBB25B09DBB2BB607B8819
:1012A40003F01F037B617B69012202FA03F37B6174
:1012B400BB68012B06D17B689B899BB27A6913407A
:1012C4007B610FE0BB68022B06D17B681B8A9BB253
:1012D4007A6913407B6105E07B689B8A9BB27A69DB
:1012E40013407B617B881B0A9BB2FB60FB68012275
:1012F40002FA03F3FB607B681B889BB2FA68134015
:10130400FB607B69002B05D0FB68002B02D0012316
:10131400FB7401E00023FB74FB7C18461C37BD46BC
:101324005DF8047B704700BF80B485B000AF78607F
:101334000B467B800023FB810023BB817B881B0A37
:10134400FB81FB89012202FA03F3BB81BB89DB43E6
:101354009AB27B681A801437BD465DF8047B7047E7
:1013640080B582B000AF78607A682F4B9A4208D17A
:101374000420012100F0B6FE0420002100F0B2FE9A
:101384004EE07A68294B9A4208D10820012100F0E6
:10139400A9FE0820002100F0A5FE41E07A68244B54
:1013A4009A4208D11020012100F09CFE1020002157
:1013B40000F098FE34E07A681E4B9A4208D120204F
:1013C400012100F08FFE2020002100F08BFE27E099
:1013D4007A68194B9A4208D14020012100F082FE1C
:1013E4004020002100F07EFE1AE07A68134B9A42F6
:1013F40008D18020012100F075FE8020002100F03A
:1014040071FE0DE07A680E4B9A4209D14FF4807058
:10141400012100F067FE4FF48070002100F062FEAD
:101424000837BD4680BD00BF00080140000C0140E4
:10143400001001400014014000180140001C01404C
:101444000020014080B500AF0120012100F04AFED8
:101454000120002100F046FE80BD00BF80B489B0A9
:1014640000AF786039600023FB6100233B610023F7
:10147400BB610023FB6000237B610023BB603B68EE
:10148400DB7803F00F03FB613B68DB7803F01003A8
:10149400002B04D03B689B78FA691343FB613B68DB
:1014A4001B88DBB2002B44D07B681B687B61002364
:1014B400BB6138E0BB69012202FA03F3FB603B68BD
:1014C4001B881A46FB6813403B613A69FB689A42E1
:1014D40026D1BB699B00FB60FB680F2202FA03F371
:1014E400BB60BB68DB437A6913407B61FB68FA69C4
:1014F40002FA03F37A6913437B613B68DB78282B98
:1015040005D1BB6901229A407B685A6108E03B68B7
:10151400DB78482B04D1BB6901229A407B681A61AD
:10152400BB690133BB61BB69072BC3D97B687A698B
:101534001A603B681B88FF2B46D97B685B687B611C
:101544000023BB613AE0BB690833012202FA03F3CA
:10155400FB603B681B881A46FB6813403B613A6991
:10156400FB689A4227D1BB699B00FB60FB680F2292
:1015740002FA03F3BB60BB68DB437A6913407B6107
:10158400FB68FA6902FA03F37A6913437B613B68E7
:10159400DB78282B05D1BB69083301229A407B688C
:1015A4005A613B68DB78482B05D1BB6908330122BB
:1015B4009A407B681A61BB690133BB61BB69072B25
:1015C400C1D97B687A695A602437BD465DF8047BCB
:1015D400704700BF80B483B000AF78607B684FF67B
:1015E400FF721A807B6802229A707B680422DA7088
:1015F4000C37BD465DF8047B704700BF80B485B0EE
:1016040000AF78600B467B800023FB737B689A688D
:101614007B881340002B02D00123FB7301E00023DD
:10162400FB73FB7B18461437BD465DF8047B70479B
:1016340080B483B000AF78607B689B689BB2184627
:101644000C37BD465DF8047B704700BF80B485B09D
:1016540000AF78600B467B800023FB737B68DA68FD
:101664007B881340002B02D00123FB7301E000238D
:10167400FB73FB7B18461437BD465DF8047B70474B
:1016840080B483B000AF78607B68DB689BB2184697
:101694000C37BD465DF8047B704700BF80B483B04F
:1016A40000AF78600B467B807A887B681A610C37C0
:1016B400BD465DF8047B704780B483B000AF7860AA
:1016C4000B467B807A887B685A610C37BD465DF88F
:1016D400047B704780B483B000AF786013460A4639
:1016E4007A807B707B78002B03D07A887B681A61C0
:1016F40002E07A887B685A610C37BD465DF8047B4A
:10170400704700BF80B483B000AF78600B467B8025
:101714007A887B68DA600C37BD465DF8047B7047D5
:1017240080B485B000AF78600B467B804FF4803383
:10173400FB607B88FA681343FB607B68FA689A61F4
:101744007A887B689A617B68FA689A617B689B698E
:10175400FB607B689B69FB601437BD465DF8047BC6
:10176400704700BF80B485B000AF02460B46FA71E3
:10177400BB710023FB600C4B1B68FB60FA684FF6DF
:1017840080731340FB60FB791B01FA681343FB6011
:10179400BB79FA681343FB60034BFA681A60143789
:1017A400BD465DF8047B70470000014080B483B0FF
:1017B40000AF0346FB71044BFA791A600C37BD463F
:1017C4005DF8047B704700BF1C00204280B487B0E2
:1017D40000AF78600B46FB7000233B610023FB6085
:1017E40000237B610023BB607B68002B03DA2E4B54
:1017F400DB697B6102E02C4B5B687B617B6803F4F3
:1018040070231B0CBB607B689BB23B617B6803F459
:101814004013B3F5401F0AD17B6923F070637B61E9
:10182400214B214A526822F070625A6021E07B68A1
:1018340003F48013002B0ED0BB68032202FA03F3D7
:10184400FB60FB68DB437A6913407B617B6943F08F
:1018540070637B610DE07B685B0D1B013A6902FAE2
:1018640003F3DB437A6913407B617B6943F0706364
:101874007B61FB78002B08D07B685B0D1B013A6908
:1018840002FA03F37A6913437B617B68002B03DA62
:10189400054B7A69DA6102E0034B7A695A601C37B6
:1018A400BD465DF8047B70470000014090B484B0ED
:1018B40000AF02460B46FA71BB710023FB60BB7993
:1018C40003F003039B000F2202FA03F3FB60154BA2
:1018D400BA799208D2B21349B8798008C0B20230FA
:1018E40051F82000F968C9430140023243F822103C
:1018F4000C4BBA799208D2B20A49B8798008C0B2BE
:10190400023051F82000FC79B97901F00301890013
:1019140004FA01F10143023243F822101037BD46A4
:1019240090BC70470000014080B483B000AF786081
:10193400034B7A681A600C37BD465DF8047B704728
:10194400DC00204280B483B000AF7860054A7B6835
:1019540043F0BF6343F40033D3600C37BD465DF8F6
:10196400047B704700ED00E080B487B000AF78607E
:1019740000237B6100233B610F23FB607B68DB78E2
:10198400002B38D0264BDB68DB4303F4E0631B0AEF
:101994007B617B69C3F104033B617B69FA6822FACA
:1019A40003F3FB607B685B781A463B6902FA03F336
:1019B4007B617B689B781A46FB6813407A69134302
:1019C4007B617B691B017B6116497B681B787A69A3
:1019D400D2B20B4483F80023124B7A68127852096E
:1019E400D2B27968097801F01F01012000FA01F1EF
:1019F40043F822100EE00B4B7A6812785209D2B2E7
:101A04007968097801F01F01012000FA01F1203200
:101A140043F822101C37BD465DF8047B704700BFB5
:101A240000ED00E000E100E080B483B000AF786036
:101A34003960074A3B6823F0604323F07F037968E9
:101A44000B4393600C37BD465DF8047B704700BFC1
:101A540000ED00E080B483B000AF02460B46FA719B
:101A6400BB71BB79002B06D0094B094A1169FA797D
:101A74000A431A6106E0064B054A1169FA79D24312
:101A84000A401A610C37BD465DF8047B704700BFFD
:101A940000ED00E080B483B000AF78607B68042B75
:101AA40006D1094B084A126842F004021A6005E0A4
:101AB400054B054A126822F004021A600C37BD4631
:101AC4005DF8047B704700BF10E000E080B400AF15
:101AD400134B134A126842F001021A60104A104B69
:101AE4005968104B0B4053600D4A0D4B1B6823F093
:101AF400847323F480331360094B094A126822F477
:101B040080221A60064B064A526822F4FE025A608A
:101B1400034B4FF41F029A60BD465DF8047B704787
:101B2400001002400000FFF880B483B000AF78607A
:101B3400134B134A126822F480321A60104B104A75
:101B4400126822F480221A607B68B3F5803F03D0C8
:101B5400B3F5802F07D00DE0094B094A126842F40F
:101B640080321A6006E0064B054A126842F4A0224D
:101B74001A6000BF0C37BD465DF8047B704700BF98
:101B84000010024080B582B000AF00233B60002308
:101B9400FB710023BB71312000F010FB0346BB71C5
:101BA4003B6801333B603B68B3F5A06F02D0BB795F
:101BB400002BF0D0312000F001FB0346002B02D0B3
:101BC4000123FB7101E00023FB71FB791846083700
:101BD400BD4680BD80B485B000AF0346FB710023D1
:101BE400FB600A4B1B68FB60FB6823F0F803FB6097
:101BF400FB79DB00FA681343FB60044BFA681A6054
:101C04001437BD465DF8047B704700BF00100240E6
:101C140080B483B000AF0346FB71044BFA791A60B9
:101C24000C37BD465DF8047B704700BF000042429C
:101C340080B485B000AF786039600023FB600A4B44
:101C44005B68FB60FB6823F47C13FB607A683B6889
:101C54001343FA681343FB60034BFA685A60143762
:101C6400BD465DF8047B70470010024080B483B029
:101C740000AF0346FB71044BFA791A600C37BD467A
:101C84005DF8047B704700BF6000424280B485B0B9
:101C940000AF78600023FB60094B5B68FB60FB6866
:101CA40023F00303FB60FA687B681343FB60044B77
:101CB400FA685A601437BD465DF8047B704700BF6C
:101CC4000010024080B400AF054B5B68DBB203F048
:101CD4000C03DBB21846BD465DF8047B704700BFB9
:101CE4000010024080B485B000AF78600023FB6030
:101CF400094B5B68FB60FB6823F0F003FB60FA6848
:101D04007B681343FB60044BFA685A601437BD4682
:101D14005DF8047B704700BF0010024080B485B0BA
:101D240000AF78600023FB60094B5B68FB60FB68D5
:101D340023F4E063FB60FA687B681343FB60044BA5
:101D4400FA685A601437BD465DF8047B704700BFDB
:101D54000010024080B485B000AF78600023FB60BF
:101D6400094B5B68FB60FB6823F46053FB607B6892
:101D7400DB00FA681343FB60034BFA685A601437BC
:101D8400BD465DF8047B70470010024080B483B008
:101D940000AF02460B46FA71BB71BB79002B08D029
:101DA4000B4B0B4A1278D1B2FA790A43D2B21A70A9
:101DB40009E0074B064A1278D1B2FA79D243D2B27B
:101DC4000A40D2B21A700C37BD465DF8047B7047E6
:101DD4000910024080B483B000AF7860034B7A6886
:101DE4001A600C37BD465DF8047B7047D800424248
:101DF40080B485B000AF78600023FB60094B5B685A
:101E0400FB60FB6823F44043FB60FA687B68134380
:101E1400FB60044BFA685A601437BD465DF8047BD6
:101E2400704700BF0010024080B483B000AF034687
:101E3400FB710C4B00221A700A4B00221A70FB79BA
:101E4400012B02D0042B04D007E0064B01221A70A8
:101E540003E0044B05221A7000BF0C37BD465DF841
:101E6400047B70472010024080B483B000AF034667
:101E7400FB71044BFA791A600C37BD465DF8047B9C
:101E8400704700BF8004424280B483B000AF7860E2
:101E9400054B054A116A7A680A431A620C37BD4633
:101EA4005DF8047B704700BF0010024080B483B02B
:101EB40000AF0346FB71044BFA791A600C37BD4638
:101EC4005DF8047B704700BF3C04424280B487B095
:101ED40000AF786000237B6100233B610023FB603B
:101EE4000023BB604D4B5B6803F00C037B617B6993
:101EF400042B07D0082B09D0002B34D17B68484A27
:101F04001A6034E07B68464A1A6030E0434B5B68F1
:101F140003F470133B61414B5B6803F48033FB6053
:101F24003B699B0C02333B61FB68002B06D13B6988
:101F34003C4A02FB03F27B681A6013E0374B5B6890
:101F440003F40033002B06D03B69364A02FB03F24C
:101F54007B681A6006E03B69314A02FB03F27B6846
:101F64001A6004E003E07B682D4A1A6000BF2B4B23
:101F74005B6803F0F0037B617B691B097B612A4A80
:101F84007B6913441B78DBB2BB607B681A68BB684F
:101F9400DA407B685A60214B5B6803F4E0637B6141
:101FA4007B691B0A7B61204A7B6913441B78DBB283
:101FB400BB607B685A68BB68DA407B689A60174BE1
:101FC4005B6803F460537B617B69DB0A7B61164ABF
:101FD4007B6913441B78DBB2BB607B685A68BB68BF
:101FE400DA407B68DA600D4B5B6803F440437B6145
:101FF4007B699B0B7B610D4A7B6913441B78DBB2C5
:10200400BB607B68DA68BB68B2FBF3F27B681A6179
:102014001C37BD465DF8047B704700BF00100240CA
:1020240000127A0000093D00140000202400002062
:1020340080B483B000AF78600B46FB70FB78002B54
:1020440006D0094B084A51697A680A435A6106E086
:10205400054B054A51697A68D2430A405A610C37E4
:10206400BD465DF8047B70470010024080B483B025
:1020740000AF78600B46FB70FB78002B06D0094B51
:10208400084A91697A680A439A6106E0054B054A51
:1020940091697A68D2430A409A610C37BD465DF86B
:1020A400047B70470010024080B483B000AF7860B6
:1020B4000B46FB70FB78002B06D0094B084AD1690C
:1020C4007A680A43DA6106E0054B054AD1697A6801
:1020D400D2430A40DA610C37BD465DF8047B704791
:1020E4000010024080B483B000AF78600B46FB70F0
:1020F400FB78002B06D0094B084AD1687A680A435A
:10210400DA6006E0054B054AD1687A68D2430A4092
:10211400DA600C37BD465DF8047B7047001002405E
:1021240080B483B000AF78600B46FB70FB78002B63
:1021340006D0094B084A11697A680A431A6106E015
:10214400054B054A11697A68D2430A401A610C3773
:10215400BD465DF8047B70470010024080B483B034
:1021640000AF0346FB71044BFA791A600C37BD4685
:102174005DF8047B704700BF4004424280B483B0E2
:1021840000AF0346FB71044BFA791A600C37BD4665
:102194005DF8047B704700BF4C00424280B483B0BA
:1021A40000AF0346FB71044BFA791A700C37BD4635
:1021B4005DF8047B704700BF0710024080B487B00D
:1021C40000AF0346FB710023FB6000237B61002307
:1021D400FB74FB795B09DBB2FB60FB68012B03D169
:1021E400124B1B687B6109E0FB68022B03D10F4B88
:1021F4001B6A7B6102E00D4B5B6A7B61FB7903F038
:102204001F03FB60FB687A6922FA03F303F00103FE
:10221400002B02D00123FB7401E00023FB74FB7C40
:1022240018461C37BD465DF8047B70470010024019
:1022340080B400AF044B044A526A42F080725A627E
:10224400BD465DF8047B70470010024080B485B041
:1022540000AF0346FB710023FB73094B9A68FB79BB
:102264001340002B02D00123FB7301E00023FB7316
:10227400FB7B18461437BD465DF8047B704700BFEE
:102284000010024080B483B000AF0346FB71044BDE
:10229400FA791A700C37BD465DF8047B704700BFAD
:1022A4000A10024002440346934202D003F8011B81
:1022B400FAE7704770B50E46054618B183690BB945
:1022C40000F010FAAC68A389190701D5236983B912
:1022D4002846214600F0AAF858B14FF0FF3070BDEF
:1022E400002B0EDB236816F8012C1A7023680133C7
:1022F4002360A36816F8012B013BA360002AEFD1E9
:1023040017E0A269934209DB236816F8012C1A70BE
:10231400236819780A29EAD1284602E016F8011C34
:102324002846224600F02EF8B0F1FF3250425041C8
:10233400D2E7002B16DAA269934208DB23680A224B
:102344001A7023681978914210D1284601E0284672
:102354000A21224600F016F8B0F1FF3358425841E2
:1023640030B1BAE723680A221A7023680133236064
:102374000A2070BD024B01461868FFF79BBF00BFDF
:102384008800002070B50E461446054618B18369CE
:102394000BB900F0A7F9224B9C4201D16C6808E00C
:1023A400204B9C4201D1AC6803E01F4B9C4208BF08
:1023B400EC68A369A360A3891A0709D523693BB113
:1023C40023692068F6B2C01A636998420FDB08E0FB
:1023D4002846214600F02AF80028F1D04FF0FF30BB
:1023E40070BD2846214600F013F90028F6D1A368F1
:1023F4000130013BA36023685A1C22601E7063698C
:10240400984204D0A389DB0707D50A2E05D12846B4
:10241400214600F0FDF80028E0D1304670BD00BF31
:10242400C02C0008E02C0008002D0008324B70B5C9
:102434001D6806460C4625B1AB6913B9284600F061
:1024440051F92E4B9C4201D16C6808E02C4B9C4204
:1024540001D1AC6803E02B4B9C4208BFEC68A28915
:1024640093B2190720D4DD0605D4092342F04002B3
:102474003360A2813BE0580712D5616B41B104F18E
:102484004403994202D0304600F002FA0023636309
:10249400A38923F02403A3810023636023692360B9
:1024A400A38943F00803A38123694BB9A38903F4E7
:1024B4002073B3F5007F03D03046214600F09CF929
:1024C400A38913F0010205D00022A260626952427E
:1024D400A26103E0990758BF6269A26022694AB900
:1024E40003F0800080B230B143F04003A3814FF089
:1024F400FF3070BD002070BD88000020C02C000893
:10250400E02C0008002D00088A892DE9F0410546D9
:1025140010070C4657D44B68002B02DC0B6C002BC5
:1025240018DDE66AB6B102F48052002392B22F6835
:102534002B600AB1626D10E0216A28460123B0477E
:10254400411C024609D12B683BB11D2B01D0162B2F
:1025540046D12F600020BDE8F081A3895B0705D533
:102564006368D21A636B0BB1236CD21AE66A2846ED
:10257400216A0023B047461CA28905D12B681BB1F0
:102584001D2B01D0162B19D1002363602369D104BC
:10259400236004D5421C01D12B6803B96065616BCB
:1025A4002F600029D6D004F14403994202D0284672
:1025B40000F06EF900206063BDE8F08142F0400253
:1025C400A281BDE8F0810E69002EC3D00B680E60B5
:1025D400C6EB030893070CBF4B6900238B6012E022
:1025E400A3894FF0FF3043F04003A381BDE8F0819D
:1025F400A76A2846216A32464346B8470028EFDDD9
:102604000644C0EB0808B8F1000FF1DCA2E70000B3
:1026140038B50B6905460C46DBB118B183690BB9B3
:1026240000F060F80C4B9C4201D16C6808E00B4B45
:102634009C4201D1AC6803E0094B9C4208BFEC68A2
:10264400B4F90C302BB128462146BDE83840FFF7D9
:102654005BBF002038BD00BFC02C0008E02C000880
:10266400002D0008014900F0A9B800BFB52A0008F0
:10267400002310B504460360436083608181436690
:10268400C28103614361836119465C300822FFF70C
:1026940009FE054B24626362044BA362044BE362AC
:1026A400044B236310BD00BFE92900080B2A00086E
:1026B400432A0008672A000870B54B1E68255D434D
:1026C4000E4605F1740100F027F9044640B10021DB
:1026D40080E842000C30A06005F16802FFF7E2FDDB
:1026E400204670BD836910B5044633BB8364C3645C
:1026F4000365124B124A1B688262984204BF01238D
:10270400836100F01FF86060204600F01BF8A060B1
:10271400204600F017F80421E06000226068FFF70B
:10272400A7FFA06809210122FFF7A2FFE068122198
:102734000222FFF79DFF0123A36110BDBC2C0008FA
:1027440069260008F8B51B4B07461E68B36913B920
:102754003046FFF7C7FF4836B4687368013B04D4BA
:10276400B4F90C5075B16834F8E733682BB93846BE
:102774000421FFF7A1FF306008B13668ECE70C23B1
:102784003B60F8BD4FF6FF73E3810123A3816566C7
:102794002560A560656025616561A56104F15C0043
:1027A40029460822FFF77EFD6563A563A564E564F9
:1027B4002046F8BDBC2C0008704770472DE9F8434B
:1027C4008046894600F14804002694B1A5686768EC
:1027D400013F0CD4AB89012B07D9B5F90E30013375
:1027E40003D040462946C84706436835F0E72468C5
:1027F400EBE73046BDE8F883F0B58B8991B09E07CE
:1028040005460C4625D4B1F90E10002908DAA3892F
:10281400002713F0800F14BF40264FF480660DE0AC
:1028240001AA00F097F90028F1DB029F4FF48066BB
:1028340007F47047B7F500514F424F4128463146DF
:1028440000F06AF860B9A3899A051DD443F0020325
:10285400A38104F14703236023610123636113E02F
:102864000A4BAB62A389206043F08003A3812061FB
:1028740066614FB12846B4F90E1000F07DF918B125
:10288400A38943F00103A38111B0F0BD69260008B8
:1028940030B500293CD051F8042C0B1F1D49002AE7
:1028A400B8BF9B180A680C4612B95A600B6030BD59
:1028B40093420DD219685818904203D15A581144C2
:1028C400426819605A60236030BD994203D80A46B1
:1028D40051680029F9D1146815199D420AD11B6861
:1028E4002344D0188842136012D10868034413604B
:1028F4004B680CE002D90C23036030BD18681C1827
:102904008C4203D10C6849682044186059605360B4
:1029140030BD00BFB004002070B5CD1C25F0030508
:1029240008350C2D38BF0C25002D064603DA0C2380
:102934003360002070BD8D42F9D3204B1C681846CB
:102944002146A1B10B685B1B0ED40B2B03D90B6082
:10295400CC18CD501FE08C4202D1626802601AE0AC
:102964004B6863600C4616E00C464968E9E7144C72
:1029740023681BB9304600F025F82060294630460C
:1029840000F020F8431C0146D1D0C41C24F00304F9
:1029940084420AD1256004F10B00231D20F00700B6
:1029A400C31A09D05A42E25070BD3046611A00F091
:1029B40009F80130EED1BAE770BD00BFB0040020C1
:1029C400AC04002038B5064C0023054608462360B5
:1029D40000F02EF9431C02D1236803B12B6038BDEB
:1029E400FC05002010B50C46B1F90E1000F0E6F815
:1029F400002803DB636D0344636510BDA38923F4DE
:102A04008053A38110BD2DE9F0411D468B890746F3
:102A1400DB050C46164605D5B1F90E10002202233B
:102A240000F0BAF8A389384623F48053A381B4F99B
:102A34000E1032462B46BDE8F04100F017B810B531
:102A44000C46B1F90E1000F0A7F8431CA38903D17A
:102A540023F48053A38110BD43F48053A3816065A4
:102A640010BDB1F90E1000F013B8000038B5074CD2
:102A7400054600202060084611461A4600F0E6F894
:102A8400431C02D1236803B12B6038BDFC05002030
:102A940038B5064C002305460846236000F0A0F82C
:102AA400431C02D1236803B12B6038BDFC05002010
:102AB40070B505460C4609B9002070BD18B183698C
:102AC4000BB9FFF70FFE204B9C4201D16C6808E064
:102AD4001E4B9C4201D1AC6803E01D4B9C4208BFD5
:102AE400EC68B4F90C30002BE6D028462146FFF7F9
:102AF4000BFD236B064633B12846216A984700280C
:102B0400B8BF4FF0FF36A3891B0603D528462169B9
:102B1400FFF7BEFE616B41B104F14403994202D058
:102B24002846FFF7B5FE00236363A16C21B1284654
:102B3400FFF7AEFE0023A364FFF73EFE0023A3814C
:102B4400FFF73BFE304670BDC02C0008E02C0008A7
:102B5400002D000838B5074C0023054608461146E9
:102B6400236000F045F8431C02D1236803B12B60B5
:102B740038BD00BFFC05002038B5064C00230546CF
:102B84000846236000F03CF8431C02D1236803B1DB
:102B94002B6038BDFC05002038B5074C05460020E5
:102BA4002060084611461A4600F032F8431C02D150
:102BB400236803B12B6038BDFC05002038B5074CF1
:102BC400054600202060084611461A4600F028F801
:102BD400431C02D1236803B12B6038BDFC050020DF
:102BE400024B58221A604FF0FF307047FC0500205A
:102BF400024B58221A604FF0FF307047FC0500204A
:102C0400024B58221A600020704700BFFC050020C8
:102C1400024B58221A604FF0FF307047FC05002029
:102C2400024B58221A604FF0FF307047FC05002019
:102C3400044A05491368002B08BF0B46184410606A
:102C440018467047B404002000060020024B5822A6
:102C54001A604FF0FF307047FC050020F8B500BF44
:102C6400F8BC08BC9E467047F8B500BFF8BC08BC69
:042C74009E467047C1
:102C78004C4544314C4544324C4544334C4544342E
:102C88004C4544354C4544364C4544370A00000011
:102C98004C4544314C4544324C4544334C4544340E
:102CA8004C4544354C4544364C45443700000000FB
:102CB8004300000028000020000000000000000081
:102CC80000000000000000000000000000000000FC
:102CD80000000000000000000000000000000000EC
:102CE80000000000000000000000000000000000DC
:102CF80000000000000000000000000000000000CC
:102D080000000000000000000000000000000000BB
:082D18000000000000000000B3
:042D2000AD010008F9
:042D2400850100081D
:102D280000A24A04000000000000000001020304A1
:102D38000607080900000000010203040102030459
:102D4800060708090204060800000000C02C000855
:102D5800E02C0008002D0008000000000000000022
:102D68000000000000000000B82C0008000000006F
:102D7800000000000000000000000000000000004B
:102D8800000000000000000000000000000000003B
:102D9800000000000000000000000000000000002B
:0C2DA800000000000000000028000020D7
:102DB400000000000000000000000000000000000F
:102DC40000000000000000000000000000000000FF
:102DD40000000000000000000000000000000000EF
:102DE40000000000000000000000000000000000DF
:0400000508000A05E0
:00000001FF
